02RETORNO01COBRANCA       00000000000004493542COOP. ODONTOLOGICA ILHEUS RESP237BRADESCO       3107150160000000800                                                                                                                                                                                                                                                                          030815         000001
1020062960800018000000160023700705888                         000000000001013937390000000000000000000000000606310715          00000000000101393739000000000000000870039900283  000000000000000000000000000000000000000000000000000000000000000000000000000000000000000870000000000000000000000000000   030815             00000000000000                                                                  000002
1020062960800018000000160023700705888                         000000000001014269710000000000000000000000000606310715          00000000000101426971000000000000000460310400069  000000000000000000000000000000000000000000000000000000000000000000000000000000000000000460300000000000000000000000000   030815             00000000000000                                                                  000003
1020062960800018000000160023700705888                         000000000001014271960000000000000000000000000606310715          00000000000101427196000000000000000625210400069  000000000000000000000000000000000000000000000000000000000000000000000000000000000000000625200000000000000000000000000   030815             00000000000000                                                                  000004
1020062960800018000000160023700705888                         000000000001014282570000000000000000000000000606310715          00000000000101428257000000000000000417310403203  000000000000000000000000000000000000000000000000000000000000000000000000000000000000000417300000000000000000000000000   030815             00000000000000                                                                  000005
1020062960800018000000160023700705888                         0000000000010144581P0000000000000000000000000606310715          0000000000010144581P000000000000000715023700237  000000000000000000000000000000000000000000000000000000000000000000000000000000000000000715000000000000000000000000000   030815             00000000000000                                                                  000006
1020062960800018000000160023700705888                         000000000001014461310000000000000000000000000606310715          00000000000101446131000000000000000422100100019  000000000000000000000000000000000000000000000000000000000000000000000000000000000000000422100000000000000000000000000   030815             00000000000000                                                                  000007
1020062960800018000000160023700705888                         000000000001014499550000000000000000000000000606310715          00000000000101449955000000000000000191310403203  000000000000000000000000000000000000000000000000000000000000000000000000000000000000000191300000000000000000000000000   030815             00000000000000                                                                  000008
1020062960800018000000160023700705888                         000000000001014501980000000000000000000000000606310715          00000000000101450198000000000000000175410403203  000000000000000000000000000000000000000000000000000000000000000000000000000000000000000175400000000000000000000000000   030815             00000000000000                                                                  000009
1020062960800018000000160023700705888                         000000000001014560210000000000000000000000000606310715          00000000000101456021000000000000000390310403203  000000000000000000000000000000000000000000000000000000000000000000000000000000000000000390300000000000000000000000000   030815             00000000000000                                                                  000010
1020062960800018000000160023700705888                         0000000000010145603P0000000000000000000000000606310715          0000000000010145603P000000000000000381400103192  000000000000000000000000000000000000000000000000000000000000000000000000000000000000000381400000000000000000000000000   030815             00000000000000                                                                  000011
1020062960800018000000160023700705888                         000000000001014571330000000000000000000000000606310715          00000000000101457133000000000000000707610403203  000000000000000000000000000000000000000000000000000000000000000000000000000000000000000707600000000000000000000000000   030815             00000000000000                                                                  000012
1020062960800018000000160023700705888                         000000000001014583340000000000000000000000000606310715          00000000000101458334000000000000001034100100019  000000000000000000000000000000000000000000000000000000000000000000000000000000000000001034100000000000000000000000000   030815             00000000000000                                                                  000013
1020062960800018000000160023700705888                         000000000001014584580000000000000000000000000606310715          00000000000101458458000000000000000191310400069  000000000000000000000000000000000000000000000000000000000000000000000000000000000000000191300000000000000000000000000   030815             00000000000000                                                                  000014
1020062960800018000000160023700705888                         000000000001014586950000000000000000000000000606310715          00000000000101458695000000000000000246734100291  000000000000000000000000000000000000000000000000000000000000000000000000000000000000000246700000000000000000000000000   030815             00000000000000                                                                  000015
1020062960800018000000160023700705888                         000000000001014603980000000000000000000000000606310715          00000000000101460398000000000000000589623703519  000000000000000000000000000000000000000000000000000000000000000000000000000000000000000589600000000000000000000000000   030815             00000000000000                                                                  000016
1020062960800018000000160023700705888                         000000000001014604010000000000000000000000000606310715          00000000000101460401000000000000000573923703519  000000000000000000000000000000000000000000000000000000000000000000000000000000000000000573900000000000000000000000000   030815             00000000000000                                                                  000017
1020062960800018000000160023700705888                         000000000001014608780000000000000000000000000606310715          00000000000101460878000000000000000717223700237  000000000000000000000000000000000000000000000000000000000000000000000000000000000000000717200000000000000000000000000   030815             00000000000000                                                                  000018
1020062960800018000000160023700705888                         000000000001014617420000000000000000000000000606310715          00000000000101461742000000000000001114810400069  000000000000000000000000000000000000000000000000000000000000000000000000000000000000001114800000000000000000000000000   030815             00000000000000                                                                  000019
1020062960800018000000160023700705888                         000000000001014654460000000000000000000000000606310715          00000000000101465446000000000000000547200105748  000000000000000000000000000000000000000000000000000000000000000000000000000000000000000547200000000000000000000000000   030815             00000000000000                                                                  000020
1020062960800018000000160023700705888                         000000000001014693440000000000000000000000000606310715          00000000000101469344000000000000000677500100019  000000000000000000000000000000000000000000000000000000000000000000000000000000000000000677500000000000000000000000000   030815             00000000000000                                                                  000021
1020062960800018000000160023700705888                         000000000001014722050000000000000000000000000606310715          00000000000101472205000000000000000699010404668  000000000000000000000000000000000000000000000000000000000000000000000000000000000000000699000000000000000000000000000   030815             00000000000000                                                                  000022
1020062960800018000000160023700705888                         000000000001014792180000000000000000000000000606310715          00000000000101479218000000000000000842900100019  000000000000000000000000000000000000000000000000000000000000000000000000000000000000000842900000000000000000000000000   030815             00000000000000                                                                  000023
1020062960800018000000160023700705888                         000000000001014845800000000000000000000000000606310715          00000000000101484580000000000000000236200100019  000000000000000000000000000000000000000000000000000000000000000000000000000000000000000236200000000000000000000000000   030815             00000000000000                                                                  000024
1020062960800018000000160023700705888                         000000000001014850640000000000000000000000000606310715          00000000000101485064000000000000000538110403203  000000000000000000000000000000000000000000000000000000000000000000000000000000000000000538100000000000000000000000000   030815             00000000000000                                                                  000025
1020062960800018000000160023700705888                         000000000001014871050000000000000000000000000606310715          00000000000101487105000000000000000573910403203  000000000000000000000000000000000000000000000000000000000000000000000000000000000000000573900000000000000000000000000   030815             00000000000000                                                                  000026
1020062960800018000000160023700705888                         000000000001014887480000000000000000000000000606310715          00000000000101488748000000000000000312023703015  000000000000000000000000000000000000000000000000000000000000000000000000000000000000000312000000000000000000000000000   030815             00000000000000                                                                  000027
1020062960800018000000160023700705888                         000000000001014890000000000000000000000000000606310715          00000000000101489000000000000000000547223703519  000000000000000000000000000000000000000000000000000000000000000000000000000000000000000547200000000000000000000000000   030815             00000000000000                                                                  000028
1020062960800018000000160023700705888                         000000000001014893610000000000000000000000000606310715          00000000000101489361000000000000000544123700237  000000000000000000000000000000000000000000000000000000000000000000000000000000000000000544100000000000000000000000000   030815             00000000000000                                                                  000029
1020062960800018000000160023700705888                         000000000001014944030000000000000000000000000606310715          00000000000101494403000000000000000142800100019  000000000000000000000000000000000000000000000000000000000000000000000000000000000000000142800000000000000000000000000   030815             00000000000000                                                                  000030
1020062960800018000000160023700705888                         000000000001014946830000000000000000000000000606310715          00000000000101494683000000000000000298810400069  000000000000000000000000000000000000000000000000000000000000000000000000000000000000000298800000000000000000000000000   030815             00000000000000                                                                  000031
1020062960800018000000160023700705888                         000000000001014995450000000000000000000000000606310715          00000000000101499545000000000000000999010400069  000000000000000000000000000000000000000000000000000000000000000000000000000000000000000999000000000000000000000000000   030815             00000000000000                                                                  000032
1020062960800018000000160023700705888                         000000000001015072380000000000000000000000000606310715          00000000000101507238000000000000000680703303150  000000000000000000000000000000000000000000000000000000000000000000000000000000000000000680700000000000000000000000000   030815             00000000000000                                                                  000033
1020062960800018000000160023700705888                         0000000000010150834P0000000000000000000000000606310715          0000000000010150834P000000000000000175410400069  000000000000000000000000000000000000000000000000000000000000000000000000000000000000000175400000000000000000000000000   030815             00000000000000                                                                  000034
1020062960800018000000160023700705888                         0000000000010151482P0000000000000000000000000606310715          0000000000010151482P000000000000000246710403203  000000000000000000000000000000000000000000000000000000000000000000000000000000000000000246700000000000000000000000000   030815             00000000000000                                                                  000035
1020062960800018000000160023700705888                         000000000001015155590000000000000000000000000606310715          00000000000101515559000000000000000395810400069  000000000000000000000000000000000000000000000000000000000000000000000000000000000000000395800000000000000000000000000   030815             00000000000000                                                                  000036
1020062960800018000000160023700705888                         000000000001015180940000000000000000000000000606310715          00000000000101518094000000000000000298210400069  000000000000000000000000000000000000000000000000000000000000000000000000000000000000000298200000000000000000000000000   030815             00000000000000                                                                  000037
1020062960800018000000160023700705888                         000000000001015265850000000000000000000000000606310715          00000000000101526585000000000000000398010403203  000000000000000000000000000000000000000000000000000000000000000000000000000000000000000398000000000000000000000000000   030815             00000000000000                                                                  000038
1020062960800018000000160023700705888                         000000000001015269410000000000000000000000000606310715          00000000000101526941000000000000000191323703519  000000000000000000000000000000000000000000000000000000000000000000000000000000000000000191300000000000000000000000000   030815             00000000000000                                                                  000039
1020062960800018000000160023700705888                         000000000001015276620000000000000000000000000606310715          00000000000101527662000000000000000419300103192  000000000000000000000000000000000000000000000000000000000000000000000000000000000000000419300000000000000000000000000   030815             00000000000000                                                                  000040
1020062960800018000000160023700705888                         000000000001015337510000000000000000000000000606310715          00000000000101533751000000000000000898510403203  000000000000000000000000000000000000000000000000000000000000000000000000000000000000000898500000000000000000000000000   030815             00000000000000                                                                  000041
1020062960800018000000160023700705888                         000000000001015343910000000000000000000000000606310715          00000000000101534391000000000000001254900100019  000000000000000000000000000000000000000000000000000000000000000000000000000000000000001254900000000000000000000000000   030815             00000000000000                                                                  000042
1020062960800018000000160023700705888                         0000000000010153684P0000000000000000000000000606310715          0000000000010153684P000000000000000699010403203  000000000000000000000000000000000000000000000000000000000000000000000000000000000000000699000000000000000000000000000   030815             00000000000000                                                                  000043
1020062960800018000000160023700705888                         000000000001015374550000000000000000000000000606310715          00000000000101537455000000000000000367300105748  000000000000000000000000000000000000000000000000000000000000000000000000000000000000000367300000000000000000000000000   030815             00000000000000                                                                  000044
1020062960800018000000160023700705888                         000000000001015379430000000000000000000000000606310715          00000000000101537943000000000000001051110400069  000000000000000000000000000000000000000000000000000000000000000000000000000000000000001051100000000000000000000000000   030815             00000000000000                                                                  000045
1020062960800018000000160023700705888                         000000000001015401030000000000000000000000000606310715          00000000000101540103000000000000001313600100019  000000000000000000000000000000000000000000000000000000000000000000000000000000000000001313600000000000000000000000000   030815             00000000000000                                                                  000046
1020062960800018000000160023700705888                         0000000000010154107P0000000000000000000000000606310715          0000000000010154107P000000000000000378300105748  000000000000000000000000000000000000000000000000000000000000000000000000000000000000000378300000000000000000000000000   030815             00000000000000                                                                  000047
1020062960800018000000160023700705888                         000000000001015414360000000000000000000000000606310715          00000000000101541436000000000000000189200103192  000000000000000000000000000000000000000000000000000000000000000000000000000000000000000189200000000000000000000000000   030815             00000000000000                                                                  000048
1020062960800018000000160023700705888                         000000000001015421730000000000000000000000000606310715          00000000000101542173000000000000000701610400069  000000000000000000000000000000000000000000000000000000000000000000000000000000000000000701600000000000000000000000000   030815             00000000000000                                                                  000049
1020062960800018000000160023700705888                         000000000001015422970000000000000000000000000606310715          00000000000101542297000000000000000350810400069  000000000000000000000000000000000000000000000000000000000000000000000000000000000000000350800000000000000000000000000   030815             00000000000000                                                                  000050
1020062960800018000000160023700705888                         000000000001015428820000000000000000000000000606310715          00000000000101542882000000000000000504323703519  000000000000000000000000000000000000000000000000000000000000000000000000000000000000000504300000000000000000000000000   030815             00000000000000                                                                  000051
1020062960800018000000160023700705888                         0000000000010154799P0000000000000000000000000606310715          0000000000010154799P000000000000001789223703519  000000000000000000000000000000000000000000000000000000000000000000000000000000000000001789200000000000000000000000000   030815             00000000000000                                                                  000052
1020062960800018000000160023700705888                         000000000001015483680000000000000000000000000606310715          00000000000101548368000000000000000597623703519  000000000000000000000000000000000000000000000000000000000000000000000000000000000000000597600000000000000000000000000   030815             00000000000000                                                                  000053
1020062960800018000000160023700705888                         000000000001015498280000000000000000000000000606310715          00000000000101549828000000000000000656803303157  000000000000000000000000000000000000000000000000000000000000000000000000000000000000000656800000000000000000000000000   030815             00000000000000                                                                  000054
1020062960800018000000160023700705888                         000000000001015660560000000000000000000000000606310715          00000000000101566056000000000000000567610400069  000000000000000000000000000000000000000000000000000000000000000000000000000000000000000567600000000000000000000000000   030815             00000000000000                                                                  000055
1020062960800018000000160023700705888                         000000000001015669270000000000000000000000000606310715          00000000000101566927000000000000000567600100019  000000000000000000000000000000000000000000000000000000000000000000000000000000000000000567600000000000000000000000000   030815             00000000000000                                                                  000056
1020062960800018000000160023700705888                         000000000001015693570000000000000000000000000606310715          00000000000101569357000000000000000266210400069  000000000000000000000000000000000000000000000000000000000000000000000000000000000000000266200000000000000000000000000   030815             00000000000000                                                                  000057
1020062960800018000000160023700705888                         000000000001015707380000000000000000000000000606310715          00000000000101570738000000000000000189200100019  000000000000000000000000000000000000000000000000000000000000000000000000000000000000000189200000000000000000000000000   030815             00000000000000                                                                  000058
1020062960800018000000160023700705888                         000000000001015787980000000000000000000000000606310715          00000000000101578798000000000000000191310403792  000000000000000000000000000000000000000000000000000000000000000000000000000000000000000191300000000000000000000000000   030815             00000000000000                                                                  000059
1020062960800018000000160023700705888                         000000000001015804310000000000000000000000000606310715          00000000000101580431000000000000000239010403203  000000000000000000000000000000000000000000000000000000000000000000000000000000000000000239000000000000000000000000000   030815             00000000000000                                                                  000060
1020062960800018000000160023700705888                         000000000001015862270000000000000000000000000606310715          00000000000101586227000000000000000493403300773  000000000000000000000000000000000000000000000000000000000000000000000000000000000000000493400000000000000000000000000   030815             00000000000000                                                                  000061
1020062960800018000000160023700705888                         000000000001015863400000000000000000000000000606310715          00000000000101586340000000000000000740110400069  000000000000000000000000000000000000000000000000000000000000000000000000000000000000000740100000000000000000000000000   030815             00000000000000                                                                  000062
1020062960800018000000160023700705888                         0000000000010158710P0000000000000000000000000606310715          0000000000010158710P000000000000000246710400069  000000000000000000000000000000000000000000000000000000000000000000000000000000000000000246700000000000000000000000000   030815             00000000000000                                                                  000063
1020062960800018000000160023700705888                         000000000001015874600000000000000000000000000606310715          00000000000101587460000000000000000350800100019  000000000000000000000000000000000000000000000000000000000000000000000000000000000000000350800000000000000000000000000   030815             00000000000000                                                                  000064
1020062960800018000000160023700705888                         000000000001015879590000000000000000000000000606310715          00000000000101587959000000000000000269010400069  000000000000000000000000000000000000000000000000000000000000000000000000000000000000000269000000000000000000000000000   030815             00000000000000                                                                  000065
1020062960800018000000160023700705888                         000000000001015883190000000000000000000000000606310715          00000000000101588319000000000000000844200100019  000000000000000000000000000000000000000000000000000000000000000000000000000000000000000844200000000000000000000000000   030815             00000000000000                                                                  000066
1020062960800018000000160023700705888                         000000000001015885560000000000000000000000000606310715          00000000000101588556000000000000000246710403203  000000000000000000000000000000000000000000000000000000000000000000000000000000000000000246700000000000000000000000000   030815             00000000000000                                                                  000067
1020062960800018000000160023700705888                         000000000001015912550000000000000000000000000606310715          00000000000101591255000000000000000378600100999  000000000000000000000000000000000000000000000000000000000000000000000000000000000000000378600000000000000000000000000   030815             00000000000000                                                                  000068
1020062960800018000000160023700705888                         000000000001015941220000000000000000000000000606310715          00000000000101594122000000000000000503810400069  000000000000000000000000000000000000000000000000000000000000000000000000000000000000000503800000000000000000000000000   030815             00000000000000                                                                  000069
1020062960800018000000160023700705888                         000000000001016035200000000000000000000000000606310715          00000000000101603520000000000000000775323700237  000000000000000000000000000000000000000000000000000000000000000000000000000000000000000775300000000000000000000000000   030815             00000000000000                                                                  000070
1020062960800018000000160023700705888                         000000000001016062440000000000000000000000000606310715          00000000000101606244000000000000000999000100019  000000000000000000000000000000000000000000000000000000000000000000000000000000000000000999000000000000000000000000000   030815             00000000000000                                                                  000071
1020062960800018000000160023700705888                         000000000001016147000000000000000000000000000606310715          00000000000101614700000000000000000740103300773  000000000000000000000000000000000000000000000000000000000000000000000000000000000000000740100000000000000000000000000   030815             00000000000000                                                                  000072
1020062960800018000000160023700705888                         000000000001016184630000000000000000000000000606310715          00000000000101618463000000000000001354810400069  000000000000000000000000000000000000000000000000000000000000000000000000000000000000001354800000000000000000000000000   030815             00000000000000                                                                  000073
1020062960800018000000160023700705888                         000000000001016196640000000000000000000000000606310715          00000000000101619664000000000000000413010401558  000000000000000000000000000000000000000000000000000000000000000000000000000000000000000413000000000000000000000000000   030815             00000000000000                                                                  000074
1020062960800018000000160023700705888                         0000000000010162174P0000000000000000000000000606310715          0000000000010162174P000000000000000219223700237  000000000000000000000000000000000000000000000000000000000000000000000000000000000000000219200000000000000000000000000   030815             00000000000000                                                                  000075
1020062960800018000000160023700705888                         000000000001016224950000000000000000000000000606310715          00000000000101622495000000000000000371600100019  000000000000000000000000000000000000000000000000000000000000000000000000000000000000000371600000000000000000000000000   030815             00000000000000                                                                  000076
1020062960800018000000160023700705888                         000000000001016245280000000000000000000000000606310715          00000000000101624528000000000000000217000100019  000000000000000000000000000000000000000000000000000000000000000000000000000000000000000217000000000000000000000000000   030815             00000000000000                                                                  000077
1020062960800018000000160023700705888                         000000000001016248890000000000000000000000000606310715          00000000000101624889000000000000000717310403203  000000000000000000000000000000000000000000000000000000000000000000000000000000000000000717300000000000000000000000000   030815             00000000000000                                                                  000078
1020062960800018000000160023700705888                         000000000001016256050000000000000000000000000606310715          00000000000101625605000000000000000501310403203  000000000000000000000000000000000000000000000000000000000000000000000000000000000000000501300000000000000000000000000   030815             00000000000000                                                                  000079
1020062960800018000000160023700705888                         000000000001016263420000000000000000000000000606310715          00000000000101626342000000000000000499000100019  000000000000000000000000000000000000000000000000000000000000000000000000000000000000000499000000000000000000000000000   030815             00000000000000                                                                  000080
1020062960800018000000160023700705888                         000000000001016356000000000000000000000000000606310715          00000000000101635600000000000000000699010400069  000000000000000000000000000000000000000000000000000000000000000000000000000000000000000699000000000000000000000000000   030815             00000000000000                                                                  000081
1020062960800018000000160023700705888                         000000000001016388630000000000000000000000000606310715          00000000000101638863000000000000000807000100019  000000000000000000000000000000000000000000000000000000000000000000000000000000000000000807000000000000000000000000000   030815             00000000000000                                                                  000082
1020062960800018000000160023700705888                         0000000000010163910P0000000000000000000000000606310715          0000000000010163910P000000000000000206310400069  000000000000000000000000000000000000000000000000000000000000000000000000000000000000000206300000000000000000000000000   030815             00000000000000                                                                  000083
1020062960800018000000160023700705888                         000000000001016431660000000000000000000000000606310715          00000000000101643166000000000000000999003300773  000000000000000000000000000000000000000000000000000000000000000000000000000000000000000999000000000000000000000000000   030815             00000000000000                                                                  000084
1020062960800018000000160023700705888                         000000000001016440220000000000000000000000000606310715          00000000000101644022000000000000000716010400069  000000000000000000000000000000000000000000000000000000000000000000000000000000000000000716000000000000000000000000000   030815             00000000000000                                                                  000085
1020062960800018000000160023700705888                         000000000001016481250000000000000000000000000606310715          00000000000101648125000000000000000382410400069  000000000000000000000000000000000000000000000000000000000000000000000000000000000000000382400000000000000000000000000   030815             00000000000000                                                                  000086
1020062960800018000000160023700705888                         000000000001016482490000000000000000000000000606310715          00000000000101648249000000000000001195610403203  000000000000000000000000000000000000000000000000000000000000000000000000000000000000001195600000000000000000000000000   030815             00000000000000                                                                  000087
1020062960800018000000160023700705888                         000000000001016484860000000000000000000000000606310715          00000000000101648486000000000000000344300100019  000000000000000000000000000000000000000000000000000000000000000000000000000000000000000344300000000000000000000000000   030815             00000000000000                                                                  000088
1020062960800018000000160023700705888                         000000000001016563220000000000000000000000000606310715          00000000000101656322000000000000000999000100019  000000000000000000000000000000000000000000000000000000000000000000000000000000000000000999000000000000000000000000000   030815             00000000000000                                                                  000089
1020062960800018000000160023700705888                         0000000000010166144P0000000000000000000000000606310715          0000000000010166144P000000000000000739600100019  000000000000000000000000000000000000000000000000000000000000000000000000000000000000000739600000000000000000000000000   030815             00000000000000                                                                  000090
1020062960800018000000160023700705888                         000000000001016616870000000000000000000000000606310715          00000000000101661687000000000000000498000103192  000000000000000000000000000000000000000000000000000000000000000000000000000000000000000498000000000000000000000000000   030815             00000000000000                                                                  000091
1020062960800018000000160023700705888                         000000000001016625270000000000000000000000000606310715          00000000000101662527000000000000000517400100019  000000000000000000000000000000000000000000000000000000000000000000000000000000000000000517400000000000000000000000000   030815             00000000000000                                                                  000092
1020062960800018000000160023700705888                         000000000001016642440000000000000000000000000606310715          00000000000101664244000000000000000792023703519  000000000000000000000000000000000000000000000000000000000000000000000000000000000000000792000000000000000000000000000   030815             00000000000000                                                                  000093
1020062960800018000000160023700705888                         000000000001016643410000000000000000000000000606310715          00000000000101664341000000000000000479310403203  000000000000000000000000000000000000000000000000000000000000000000000000000000000000000479300000000000000000000000000   030815             00000000000000                                                                  000094
1020062960800018000000160023700705888                         000000000001016673400000000000000000000000000606310715          00000000000101667340000000000000002091623700237  000000000000000000000000000000000000000000000000000000000000000000000000000000000000002091600000000000000000000000000   030815             00000000000000                                                                  000095
1020062960800018000000160023700705888                         000000000001016682580000000000000000000000000606310715          00000000000101668258000000000000001121423700237  000000000000000000000000000000000000000000000000000000000000000000000000000000000000001121400000000000000000000000000   030815             00000000000000                                                                  000096
1020062960800018000000160023700705888                         000000000001016712670000000000000000000000000606310715          00000000000101671267000000000000000999000100019  000000000000000000000000000000000000000000000000000000000000000000000000000000000000000999000000000000000000000000000   030815             00000000000000                                                                  000097
1020062960800018000000160023700705888                         000000000001016778770000000000000000000000000606310715          00000000000101677877000000000000000310710403203  000000000000000000000000000000000000000000000000000000000000000000000000000000000000000310700000000000000000000000000   030815             00000000000000                                                                  000098
1020062960800018000000160023700705888                         000000000001016803550000000000000000000000000606310715          00000000000101680355000000000000000645303300773  000000000000000000000000000000000000000000000000000000000000000000000000000000000000000645300000000000000000000000000   030815             00000000000000                                                                  000099
1020062960800018000000160023700705888                         000000000001016870660000000000000000000000000606310715          00000000000101687066000000000000000387700100019  000000000000000000000000000000000000000000000000000000000000000000000000000000000000000387700000000000000000000000000   030815             00000000000000                                                                  000100
1020062960800018000000160023700705888                         000000000001016871630000000000000000000000000606310715          00000000000101687163000000000000000383623702482  000000000000000000000000000000000000000000000000000000000000000000000000000000000000000383600000000000000000000000000   030815             00000000000000                                                                  000101
1020062960800018000000160023700705888                         000000000001016871980000000000000000000000000606310715          00000000000101687198000000000000000383600100019  000000000000000000000000000000000000000000000000000000000000000000000000000000000000000383600000000000000000000000000   030815             00000000000000                                                                  000102
1020062960800018000000160023700705888                         000000000001016872440000000000000000000000000606310715          00000000000101687244000000000000001500000100019  000000000000000000000000000000000000000000000000000000000000000000000000000000000000001500000000000000000000000000000   030815             00000000000000                                                                  000103
1020062960800018000000160023700705888                         000000000001016872600000000000000000000000000606310715          00000000000101687260000000000000000351000103192  000000000000000000000000000000000000000000000000000000000000000000000000000000000000000351000000000000000000000000000   030815             00000000000000                                                                  000104
1020062960800018000000160023700705888                         000000000001016933680000000000000000000000000606310715          00000000000101693368000000000000000999003300773  000000000000000000000000000000000000000000000000000000000000000000000000000000000000000999000000000000000000000000000   030815             00000000000000                                                                  000105
1020062960800018000000160023700705888                         000000000001016943720000000000000000000000000606310715          00000000000101694372000000000000003000003300773  000000000000000000000000000000000000000000000000000000000000000000000000000000000000003000000000000000000000000000000   030815             00000000000000                                                                  000106
1020062960800018000000160023700705888                         000000000001016947470000000000000000000000000606310715          00000000000101694747000000000000002915000400160  000000000000000000000000000000000000000000000000000000000000000000000000000000000000002915000000000000000000000000000   030815             00000000000000                                                                  000107
1020062960800018000000160023700705888                         000000000001016956460000000000000000000000000606310715          00000000000101695646000000000000000750000100019  000000000000000000000000000000000000000000000000000000000000000000000000000000000000000750000000000000000000000000000   030815             00000000000000                                                                  000108
1020062960800018000000160023700705888                         000000000001016975920000000000000000000000000606310715          00000000000101697592000000000000000451510401558  000000000000000000000000000000000000000000000000000000000000000000000000000000000000000451500000000000000000000000000   030815             00000000000000                                                                  000109
1020062960800018000000160023700705888                         000000000001016982110000000000000000000000000606310715          00000000000101698211000000000000000167410400069  000000000000000000000000000000000000000000000000000000000000000000000000000000000000000167400000000000000000000000000   030815             00000000000000                                                                  000110
1020062960800018000000160023700705888                         0000000000010169822P0000000000000000000000000606310715          0000000000010169822P000000000000000166010400069  000000000000000000000000000000000000000000000000000000000000000000000000000000000000000166000000000000000000000000000   030815             00000000000000                                                                  000111
1020062960800018000000160023700705888                         000000000001016982460000000000000000000000000606310715          00000000000101698246000000000000004784010400069  000000000000000000000000000000000000000000000000000000000000000000000000000000000000004784000000000000000000000000000   030815             00000000000000                                                                  000112
1020062960800018000000160023700705888                         000000000001016982540000000000000000000000000606310715          00000000000101698254000000000000000438610400069  000000000000000000000000000000000000000000000000000000000000000000000000000000000000000438600000000000000000000000000   030815             00000000000000                                                                  000113
1020062960800018000000160023700705888                         000000000001016982620000000000000000000000000606310715          00000000000101698262000000000000000409710400069  000000000000000000000000000000000000000000000000000000000000000000000000000000000000000409700000000000000000000000000   030815             00000000000000                                                                  000114
1020062960800018000000160023700705888                         000000000001016983510000000000000000000000000606310715          00000000000101698351000000000000000680003300773  000000000000000000000000000000000000000000000000000000000000000000000000000000000000000680000000000000000000000000000   030815             00000000000000                                                                  000115
1020062960800018000000160023700705888                         000000000001016984590000000000000000000000000606310715          00000000000101698459000000000000001012800100019  000000000000000000000000000000000000000000000000000000000000000000000000000000000000001012800000000000000000000000000   030815             00000000000000                                                                  000116
1020062960800018000000160023700705888                         000000000001016984670000000000000000000000000606310715          00000000000101698467000000000000001128100102968  000000000000000000000000000000000000000000000000000000000000000000000000000000000000001128100000000000000000000000000   030815             00000000000000                                                                  000117
1020062960800018000000160023700705888                         0000000000010163910P0000000000000000000000000606310715          0000000000010163910P000000000000000206310400069  000000000000000000000000000000000000000000000000000000000000000000000000000000000000000206300000000000000000000000000   030815             00000000000000                                                                  000083
1020062960800018000000160023700705888                         000000000001016431660000000000000000000000000606310715          00000000000101643166000000000000000999003300773  000000000000000000000000000000000000000000000000000000000000000000000000000000000000000999000000000000000000000000000   030815             00000000000000                                                                  000084
1020062960800018000000160023700705888                         000000000001016440220000000000000000000000000606310715          00000000000101644022000000000000000716010400069  000000000000000000000000000000000000000000000000000000000000000000000000000000000000000716000000000000000000000000000   030815             00000000000000                                                                  000085
1020062960800018000000160023700705888                         000000000001016481250000000000000000000000000606310715          00000000000101648125000000000000000382410400069  000000000000000000000000000000000000000000000000000000000000000000000000000000000000000382400000000000000000000000000   030815             00000000000000                                                                  000086
1020062960800018000000160023700705888                         000000000001016482490000000000000000000000000606310715          00000000000101648249000000000000001195610403203  000000000000000000000000000000000000000000000000000000000000000000000000000000000000001195600000000000000000000000000   030815             00000000000000                                                                  000087
1020062960800018000000160023700705888                         000000000001016484860000000000000000000000000606310715          00000000000101648486000000000000000344300100019  000000000000000000000000000000000000000000000000000000000000000000000000000000000000000344300000000000000000000000000   030815             00000000000000                                                                  000088
1020062960800018000000160023700705888                         000000000001016563220000000000000000000000000606310715          00000000000101656322000000000000000999000100019  000000000000000000000000000000000000000000000000000000000000000000000000000000000000000999000000000000000000000000000   030815             00000000000000                                                                  000089
1020062960800018000000160023700705888                         0000000000010166144P0000000000000000000000000606310715          0000000000010166144P000000000000000739600100019  000000000000000000000000000000000000000000000000000000000000000000000000000000000000000739600000000000000000000000000   030815             00000000000000                                                                  000090
1020062960800018000000160023700705888                         000000000001016616870000000000000000000000000606310715          00000000000101661687000000000000000498000103192  000000000000000000000000000000000000000000000000000000000000000000000000000000000000000498000000000000000000000000000   030815             00000000000000                                                                  000091
1020062960800018000000160023700705888                         000000000001016625270000000000000000000000000606310715          00000000000101662527000000000000000517400100019  000000000000000000000000000000000000000000000000000000000000000000000000000000000000000517400000000000000000000000000   030815             00000000000000                                                                  000092
1020062960800018000000160023700705888                         000000000001016642440000000000000000000000000606310715          00000000000101664244000000000000000792023703519  000000000000000000000000000000000000000000000000000000000000000000000000000000000000000792000000000000000000000000000   030815             00000000000000                                                                  000093
1020062960800018000000160023700705888                         000000000001016643410000000000000000000000000606310715          00000000000101664341000000000000000479310403203  000000000000000000000000000000000000000000000000000000000000000000000000000000000000000479300000000000000000000000000   030815             00000000000000                                                                  000094
1020062960800018000000160023700705888                         000000000001016673400000000000000000000000000606310715          00000000000101667340000000000000002091623700237  000000000000000000000000000000000000000000000000000000000000000000000000000000000000002091600000000000000000000000000   030815             00000000000000                                                                  000095
1020062960800018000000160023700705888                         000000000001016682580000000000000000000000000606310715          00000000000101668258000000000000001121423700237  000000000000000000000000000000000000000000000000000000000000000000000000000000000000001121400000000000000000000000000   030815             00000000000000                                                                  000096
1020062960800018000000160023700705888                         000000000001016712670000000000000000000000000606310715          00000000000101671267000000000000000999000100019  000000000000000000000000000000000000000000000000000000000000000000000000000000000000000999000000000000000000000000000   030815             00000000000000                                                                  000097
1020062960800018000000160023700705888                         000000000001016778770000000000000000000000000606310715          00000000000101677877000000000000000310710403203  000000000000000000000000000000000000000000000000000000000000000000000000000000000000000310700000000000000000000000000   030815             00000000000000                                                                  000098
1020062960800018000000160023700705888                         000000000001016803550000000000000000000000000606310715          00000000000101680355000000000000000645303300773  000000000000000000000000000000000000000000000000000000000000000000000000000000000000000645300000000000000000000000000   030815             00000000000000                                                                  000099
1020062960800018000000160023700705888                         000000000001016870660000000000000000000000000606310715          00000000000101687066000000000000000387700100019  000000000000000000000000000000000000000000000000000000000000000000000000000000000000000387700000000000000000000000000   030815             00000000000000                                                                  000100
1020062960800018000000160023700705888                         000000000001016871630000000000000000000000000606310715          00000000000101687163000000000000000383623702482  000000000000000000000000000000000000000000000000000000000000000000000000000000000000000383600000000000000000000000000   030815             00000000000000                                                                  000101
1020062960800018000000160023700705888                         000000000001016871980000000000000000000000000606310715          00000000000101687198000000000000000383600100019  000000000000000000000000000000000000000000000000000000000000000000000000000000000000000383600000000000000000000000000   030815             00000000000000                                                                  000102
1020062960800018000000160023700705888                         000000000001016872440000000000000000000000000606310715          00000000000101687244000000000000001500000100019  000000000000000000000000000000000000000000000000000000000000000000000000000000000000001500000000000000000000000000000   030815             00000000000000                                                                  000103
1020062960800018000000160023700705888                         000000000001016872600000000000000000000000000606310715          00000000000101687260000000000000000351000103192  000000000000000000000000000000000000000000000000000000000000000000000000000000000000000351000000000000000000000000000   030815             00000000000000                                                                  000104
1020062960800018000000160023700705888                         000000000001016933680000000000000000000000000606310715          00000000000101693368000000000000000999003300773  000000000000000000000000000000000000000000000000000000000000000000000000000000000000000999000000000000000000000000000   030815             00000000000000                                                                  000105
1020062960800018000000160023700705888                         000000000001016943720000000000000000000000000606310715          00000000000101694372000000000000003000003300773  000000000000000000000000000000000000000000000000000000000000000000000000000000000000003000000000000000000000000000000   030815             00000000000000                                                                  000106
1020062960800018000000160023700705888                         000000000001016947470000000000000000000000000606310715          00000000000101694747000000000000002915000400160  000000000000000000000000000000000000000000000000000000000000000000000000000000000000002915000000000000000000000000000   030815             00000000000000                                                                  000107
1020062960800018000000160023700705888                         000000000001016956460000000000000000000000000606310715          00000000000101695646000000000000000750000100019  000000000000000000000000000000000000000000000000000000000000000000000000000000000000000750000000000000000000000000000   030815             00000000000000                                                                  000108
1020062960800018000000160023700705888                         000000000001016975920000000000000000000000000606310715          00000000000101697592000000000000000451510401558  000000000000000000000000000000000000000000000000000000000000000000000000000000000000000451500000000000000000000000000   030815             00000000000000                                                                  000109
1020062960800018000000160023700705888                         000000000001016982110000000000000000000000000606310715          00000000000101698211000000000000000167410400069  000000000000000000000000000000000000000000000000000000000000000000000000000000000000000167400000000000000000000000000   030815             00000000000000                                                                  000110
1020062960800018000000160023700705888                         0000000000010169822P0000000000000000000000000606310715          0000000000010169822P000000000000000166010400069  000000000000000000000000000000000000000000000000000000000000000000000000000000000000000166000000000000000000000000000   030815             00000000000000                                                                  000111
1020062960800018000000160023700705888                         000000000001016982460000000000000000000000000606310715          00000000000101698246000000000000004784010400069  000000000000000000000000000000000000000000000000000000000000000000000000000000000000004784000000000000000000000000000   030815             00000000000000                                                                  000112
1020062960800018000000160023700705888                         000000000001016982540000000000000000000000000606310715          00000000000101698254000000000000000438610400069  000000000000000000000000000000000000000000000000000000000000000000000000000000000000000438600000000000000000000000000   030815             00000000000000                                                                  000113
1020062960800018000000160023700705888                         000000000001016982620000000000000000000000000606310715          00000000000101698262000000000000000409710400069  000000000000000000000000000000000000000000000000000000000000000000000000000000000000000409700000000000000000000000000   030815             00000000000000                                                                  000114
1020062960800018000000160023700705888                         000000000001016983510000000000000000000000000606310715          00000000000101698351000000000000000680003300773  000000000000000000000000000000000000000000000000000000000000000000000000000000000000000680000000000000000000000000000   030815             00000000000000                                                                  000115
1020062960800018000000160023700705888                         000000000001016984590000000000000000000000000606310715          00000000000101698459000000000000001012800100019  000000000000000000000000000000000000000000000000000000000000000000000000000000000000001012800000000000000000000000000   030815             00000000000000                                                                  000116
1020062960800018000000160023700705888                         000000000001016984670000000000000000000000000606310715          00000000000101698467000000000000001128100102968  000000000000000000000000000000000000000000000000000000000000000000000000000000000000001128100000000000000000000000000   030815             00000000000000                                                                  000117
1020062960800018000000160023700705888                         0000000000010163910P0000000000000000000000000606310715          0000000000010163910P000000000000000206310400069  000000000000000000000000000000000000000000000000000000000000000000000000000000000000000206300000000000000000000000000   030815             00000000000000                                                                  000083
1020062960800018000000160023700705888                         000000000001016431660000000000000000000000000606310715          00000000000101643166000000000000000999003300773  000000000000000000000000000000000000000000000000000000000000000000000000000000000000000999000000000000000000000000000   030815             00000000000000                                                                  000084
1020062960800018000000160023700705888                         000000000001016440220000000000000000000000000606310715          00000000000101644022000000000000000716010400069  000000000000000000000000000000000000000000000000000000000000000000000000000000000000000716000000000000000000000000000   030815             00000000000000                                                                  000085
1020062960800018000000160023700705888                         000000000001016481250000000000000000000000000606310715          00000000000101648125000000000000000382410400069  000000000000000000000000000000000000000000000000000000000000000000000000000000000000000382400000000000000000000000000   030815             00000000000000                                                                  000086
1020062960800018000000160023700705888                         000000000001016482490000000000000000000000000606310715          00000000000101648249000000000000001195610403203  000000000000000000000000000000000000000000000000000000000000000000000000000000000000001195600000000000000000000000000   030815             00000000000000                                                                  000087
1020062960800018000000160023700705888                         000000000001016484860000000000000000000000000606310715          00000000000101648486000000000000000344300100019  000000000000000000000000000000000000000000000000000000000000000000000000000000000000000344300000000000000000000000000   030815             00000000000000                                                                  000088
1020062960800018000000160023700705888                         000000000001016563220000000000000000000000000606310715          00000000000101656322000000000000000999000100019  000000000000000000000000000000000000000000000000000000000000000000000000000000000000000999000000000000000000000000000   030815             00000000000000                                                                  000089
1020062960800018000000160023700705888                         0000000000010166144P0000000000000000000000000606310715          0000000000010166144P000000000000000739600100019  000000000000000000000000000000000000000000000000000000000000000000000000000000000000000739600000000000000000000000000   030815             00000000000000                                                                  000090
1020062960800018000000160023700705888                         000000000001016616870000000000000000000000000606310715          00000000000101661687000000000000000498000103192  000000000000000000000000000000000000000000000000000000000000000000000000000000000000000498000000000000000000000000000   030815             00000000000000                                                                  000091
1020062960800018000000160023700705888                         000000000001016625270000000000000000000000000606310715          00000000000101662527000000000000000517400100019  000000000000000000000000000000000000000000000000000000000000000000000000000000000000000517400000000000000000000000000   030815             00000000000000                                                                  000092
1020062960800018000000160023700705888                         000000000001016642440000000000000000000000000606310715          00000000000101664244000000000000000792023703519  000000000000000000000000000000000000000000000000000000000000000000000000000000000000000792000000000000000000000000000   030815             00000000000000                                                                  000093
1020062960800018000000160023700705888                         000000000001016643410000000000000000000000000606310715          00000000000101664341000000000000000479310403203  000000000000000000000000000000000000000000000000000000000000000000000000000000000000000479300000000000000000000000000   030815             00000000000000                                                                  000094
1020062960800018000000160023700705888                         000000000001016673400000000000000000000000000606310715          00000000000101667340000000000000002091623700237  000000000000000000000000000000000000000000000000000000000000000000000000000000000000002091600000000000000000000000000   030815             00000000000000                                                                  000095
1020062960800018000000160023700705888                         000000000001016682580000000000000000000000000606310715          00000000000101668258000000000000001121423700237  000000000000000000000000000000000000000000000000000000000000000000000000000000000000001121400000000000000000000000000   030815             00000000000000                                                                  000096
1020062960800018000000160023700705888                         000000000001016712670000000000000000000000000606310715          00000000000101671267000000000000000999000100019  000000000000000000000000000000000000000000000000000000000000000000000000000000000000000999000000000000000000000000000   030815             00000000000000                                                                  000097
1020062960800018000000160023700705888                         000000000001016778770000000000000000000000000606310715          00000000000101677877000000000000000310710403203  000000000000000000000000000000000000000000000000000000000000000000000000000000000000000310700000000000000000000000000   030815             00000000000000                                                                  000098
1020062960800018000000160023700705888                         000000000001016803550000000000000000000000000606310715          00000000000101680355000000000000000645303300773  000000000000000000000000000000000000000000000000000000000000000000000000000000000000000645300000000000000000000000000   030815             00000000000000                                                                  000099
1020062960800018000000160023700705888                         000000000001016870660000000000000000000000000606310715          00000000000101687066000000000000000387700100019  000000000000000000000000000000000000000000000000000000000000000000000000000000000000000387700000000000000000000000000   030815             00000000000000                                                                  000100
1020062960800018000000160023700705888                         000000000001016871630000000000000000000000000606310715          00000000000101687163000000000000000383623702482  000000000000000000000000000000000000000000000000000000000000000000000000000000000000000383600000000000000000000000000   030815             00000000000000                                                                  000101
1020062960800018000000160023700705888                         000000000001016871980000000000000000000000000606310715          00000000000101687198000000000000000383600100019  000000000000000000000000000000000000000000000000000000000000000000000000000000000000000383600000000000000000000000000   030815             00000000000000                                                                  000102
1020062960800018000000160023700705888                         000000000001016872440000000000000000000000000606310715          00000000000101687244000000000000001500000100019  000000000000000000000000000000000000000000000000000000000000000000000000000000000000001500000000000000000000000000000   030815             00000000000000                                                                  000103
1020062960800018000000160023700705888                         000000000001016872600000000000000000000000000606310715          00000000000101687260000000000000000351000103192  000000000000000000000000000000000000000000000000000000000000000000000000000000000000000351000000000000000000000000000   030815             00000000000000                                                                  000104
1020062960800018000000160023700705888                         000000000001016933680000000000000000000000000606310715          00000000000101693368000000000000000999003300773  000000000000000000000000000000000000000000000000000000000000000000000000000000000000000999000000000000000000000000000   030815             00000000000000                                                                  000105
1020062960800018000000160023700705888                         000000000001016943720000000000000000000000000606310715          00000000000101694372000000000000003000003300773  000000000000000000000000000000000000000000000000000000000000000000000000000000000000003000000000000000000000000000000   030815             00000000000000                                                                  000106
1020062960800018000000160023700705888                         000000000001016947470000000000000000000000000606310715          00000000000101694747000000000000002915000400160  000000000000000000000000000000000000000000000000000000000000000000000000000000000000002915000000000000000000000000000   030815             00000000000000                                                                  000107
1020062960800018000000160023700705888                         000000000001016956460000000000000000000000000606310715          00000000000101695646000000000000000750000100019  000000000000000000000000000000000000000000000000000000000000000000000000000000000000000750000000000000000000000000000   030815             00000000000000                                                                  000108
1020062960800018000000160023700705888                         000000000001016975920000000000000000000000000606310715          00000000000101697592000000000000000451510401558  000000000000000000000000000000000000000000000000000000000000000000000000000000000000000451500000000000000000000000000   030815             00000000000000                                                                  000109
1020062960800018000000160023700705888                         000000000001016982110000000000000000000000000606310715          00000000000101698211000000000000000167410400069  000000000000000000000000000000000000000000000000000000000000000000000000000000000000000167400000000000000000000000000   030815             00000000000000                                                                  000110
1020062960800018000000160023700705888                         0000000000010169822P0000000000000000000000000606310715          0000000000010169822P000000000000000166010400069  000000000000000000000000000000000000000000000000000000000000000000000000000000000000000166000000000000000000000000000   030815             00000000000000                                                                  000111
1020062960800018000000160023700705888                         000000000001016982460000000000000000000000000606310715          00000000000101698246000000000000004784010400069  000000000000000000000000000000000000000000000000000000000000000000000000000000000000004784000000000000000000000000000   030815             00000000000000                                                                  000112
1020062960800018000000160023700705888                         000000000001016982540000000000000000000000000606310715          00000000000101698254000000000000000438610400069  000000000000000000000000000000000000000000000000000000000000000000000000000000000000000438600000000000000000000000000   030815             00000000000000                                                                  000113
1020062960800018000000160023700705888                         000000000001016982620000000000000000000000000606310715          00000000000101698262000000000000000409710400069  000000000000000000000000000000000000000000000000000000000000000000000000000000000000000409700000000000000000000000000   030815             00000000000000                                                                  000114
1020062960800018000000160023700705888                         000000000001016983510000000000000000000000000606310715          00000000000101698351000000000000000680003300773  000000000000000000000000000000000000000000000000000000000000000000000000000000000000000680000000000000000000000000000   030815             00000000000000                                                                  000115
1020062960800018000000160023700705888                         000000000001016984590000000000000000000000000606310715          00000000000101698459000000000000001012800100019  000000000000000000000000000000000000000000000000000000000000000000000000000000000000001012800000000000000000000000000   030815             00000000000000                                                                  000116
1020062960800018000000160023700705888                         000000000001016984670000000000000000000000000606310715          00000000000101698467000000000000001128100102968  000000000000000000000000000000000000000000000000000000000000000000000000000000000000001128100000000000000000000000000   030815             00000000000000                                                                  000117
1020062960800018000000160023700705888                         0000000000010163910P0000000000000000000000000606310715          0000000000010163910P000000000000000206310400069  000000000000000000000000000000000000000000000000000000000000000000000000000000000000000206300000000000000000000000000   030815             00000000000000                                                                  000083
1020062960800018000000160023700705888                         000000000001016431660000000000000000000000000606310715          00000000000101643166000000000000000999003300773  000000000000000000000000000000000000000000000000000000000000000000000000000000000000000999000000000000000000000000000   030815             00000000000000                                                                  000084
1020062960800018000000160023700705888                         000000000001016440220000000000000000000000000606310715          00000000000101644022000000000000000716010400069  000000000000000000000000000000000000000000000000000000000000000000000000000000000000000716000000000000000000000000000   030815             00000000000000                                                                  000085
1020062960800018000000160023700705888                         000000000001016481250000000000000000000000000606310715          00000000000101648125000000000000000382410400069  000000000000000000000000000000000000000000000000000000000000000000000000000000000000000382400000000000000000000000000   030815             00000000000000                                                                  000086
1020062960800018000000160023700705888                         000000000001016482490000000000000000000000000606310715          00000000000101648249000000000000001195610403203  000000000000000000000000000000000000000000000000000000000000000000000000000000000000001195600000000000000000000000000   030815             00000000000000                                                                  000087
1020062960800018000000160023700705888                         000000000001016484860000000000000000000000000606310715          00000000000101648486000000000000000344300100019  000000000000000000000000000000000000000000000000000000000000000000000000000000000000000344300000000000000000000000000   030815             00000000000000                                                                  000088
1020062960800018000000160023700705888                         000000000001016563220000000000000000000000000606310715          00000000000101656322000000000000000999000100019  000000000000000000000000000000000000000000000000000000000000000000000000000000000000000999000000000000000000000000000   030815             00000000000000                                                                  000089
1020062960800018000000160023700705888                         0000000000010166144P0000000000000000000000000606310715          0000000000010166144P000000000000000739600100019  000000000000000000000000000000000000000000000000000000000000000000000000000000000000000739600000000000000000000000000   030815             00000000000000                                                                  000090
1020062960800018000000160023700705888                         000000000001016616870000000000000000000000000606310715          00000000000101661687000000000000000498000103192  000000000000000000000000000000000000000000000000000000000000000000000000000000000000000498000000000000000000000000000   030815             00000000000000                                                                  000091
1020062960800018000000160023700705888                         000000000001016625270000000000000000000000000606310715          00000000000101662527000000000000000517400100019  000000000000000000000000000000000000000000000000000000000000000000000000000000000000000517400000000000000000000000000   030815             00000000000000                                                                  000092
1020062960800018000000160023700705888                         000000000001016642440000000000000000000000000606310715          00000000000101664244000000000000000792023703519  000000000000000000000000000000000000000000000000000000000000000000000000000000000000000792000000000000000000000000000   030815             00000000000000                                                                  000093
1020062960800018000000160023700705888                         000000000001016643410000000000000000000000000606310715          00000000000101664341000000000000000479310403203  000000000000000000000000000000000000000000000000000000000000000000000000000000000000000479300000000000000000000000000   030815             00000000000000                                                                  000094
1020062960800018000000160023700705888                         000000000001016673400000000000000000000000000606310715          00000000000101667340000000000000002091623700237  000000000000000000000000000000000000000000000000000000000000000000000000000000000000002091600000000000000000000000000   030815             00000000000000                                                                  000095
1020062960800018000000160023700705888                         000000000001016682580000000000000000000000000606310715          00000000000101668258000000000000001121423700237  000000000000000000000000000000000000000000000000000000000000000000000000000000000000001121400000000000000000000000000   030815             00000000000000                                                                  000096
1020062960800018000000160023700705888                         000000000001016712670000000000000000000000000606310715          00000000000101671267000000000000000999000100019  000000000000000000000000000000000000000000000000000000000000000000000000000000000000000999000000000000000000000000000   030815             00000000000000                                                                  000097
1020062960800018000000160023700705888                         000000000001016778770000000000000000000000000606310715          00000000000101677877000000000000000310710403203  000000000000000000000000000000000000000000000000000000000000000000000000000000000000000310700000000000000000000000000   030815             00000000000000                                                                  000098
1020062960800018000000160023700705888                         000000000001016803550000000000000000000000000606310715          00000000000101680355000000000000000645303300773  000000000000000000000000000000000000000000000000000000000000000000000000000000000000000645300000000000000000000000000   030815             00000000000000                                                                  000099
1020062960800018000000160023700705888                         000000000001016870660000000000000000000000000606310715          00000000000101687066000000000000000387700100019  000000000000000000000000000000000000000000000000000000000000000000000000000000000000000387700000000000000000000000000   030815             00000000000000                                                                  000100
1020062960800018000000160023700705888                         000000000001016871630000000000000000000000000606310715          00000000000101687163000000000000000383623702482  000000000000000000000000000000000000000000000000000000000000000000000000000000000000000383600000000000000000000000000   030815             00000000000000                                                                  000101
1020062960800018000000160023700705888                         000000000001016871980000000000000000000000000606310715          00000000000101687198000000000000000383600100019  000000000000000000000000000000000000000000000000000000000000000000000000000000000000000383600000000000000000000000000   030815             00000000000000                                                                  000102
1020062960800018000000160023700705888                         000000000001016872440000000000000000000000000606310715          00000000000101687244000000000000001500000100019  000000000000000000000000000000000000000000000000000000000000000000000000000000000000001500000000000000000000000000000   030815             00000000000000                                                                  000103
1020062960800018000000160023700705888                         000000000001016872600000000000000000000000000606310715          00000000000101687260000000000000000351000103192  000000000000000000000000000000000000000000000000000000000000000000000000000000000000000351000000000000000000000000000   030815             00000000000000                                                                  000104
1020062960800018000000160023700705888                         000000000001016933680000000000000000000000000606310715          00000000000101693368000000000000000999003300773  000000000000000000000000000000000000000000000000000000000000000000000000000000000000000999000000000000000000000000000   030815             00000000000000                                                                  000105
1020062960800018000000160023700705888                         000000000001016943720000000000000000000000000606310715          00000000000101694372000000000000003000003300773  000000000000000000000000000000000000000000000000000000000000000000000000000000000000003000000000000000000000000000000   030815             00000000000000                                                                  000106
1020062960800018000000160023700705888                         000000000001016947470000000000000000000000000606310715          00000000000101694747000000000000002915000400160  000000000000000000000000000000000000000000000000000000000000000000000000000000000000002915000000000000000000000000000   030815             00000000000000                                                                  000107
1020062960800018000000160023700705888                         000000000001016956460000000000000000000000000606310715          00000000000101695646000000000000000750000100019  000000000000000000000000000000000000000000000000000000000000000000000000000000000000000750000000000000000000000000000   030815             00000000000000                                                                  000108
1020062960800018000000160023700705888                         000000000001016975920000000000000000000000000606310715          00000000000101697592000000000000000451510401558  000000000000000000000000000000000000000000000000000000000000000000000000000000000000000451500000000000000000000000000   030815             00000000000000                                                                  000109
1020062960800018000000160023700705888                         000000000001016982110000000000000000000000000606310715          00000000000101698211000000000000000167410400069  000000000000000000000000000000000000000000000000000000000000000000000000000000000000000167400000000000000000000000000   030815             00000000000000                                                                  000110
1020062960800018000000160023700705888                         0000000000010169822P0000000000000000000000000606310715          0000000000010169822P000000000000000166010400069  000000000000000000000000000000000000000000000000000000000000000000000000000000000000000166000000000000000000000000000   030815             00000000000000                                                                  000111
1020062960800018000000160023700705888                         000000000001016982460000000000000000000000000606310715          00000000000101698246000000000000004784010400069  000000000000000000000000000000000000000000000000000000000000000000000000000000000000004784000000000000000000000000000   030815             00000000000000                                                                  000112
1020062960800018000000160023700705888                         000000000001016982540000000000000000000000000606310715          00000000000101698254000000000000000438610400069  000000000000000000000000000000000000000000000000000000000000000000000000000000000000000438600000000000000000000000000   030815             00000000000000                                                                  000113
1020062960800018000000160023700705888                         000000000001016982620000000000000000000000000606310715          00000000000101698262000000000000000409710400069  000000000000000000000000000000000000000000000000000000000000000000000000000000000000000409700000000000000000000000000   030815             00000000000000                                                                  000114
1020062960800018000000160023700705888                         000000000001016983510000000000000000000000000606310715          00000000000101698351000000000000000680003300773  000000000000000000000000000000000000000000000000000000000000000000000000000000000000000680000000000000000000000000000   030815             00000000000000                                                                  000115
1020062960800018000000160023700705888                         000000000001016984590000000000000000000000000606310715          00000000000101698459000000000000001012800100019  000000000000000000000000000000000000000000000000000000000000000000000000000000000000001012800000000000000000000000000   030815             00000000000000                                                                  000116
1020062960800018000000160023700705888                         000000000001016984670000000000000000000000000606310715          00000000000101698467000000000000001128100102968  000000000000000000000000000000000000000000000000000000000000000000000000000000000000001128100000000000000000000000000   030815             00000000000000                                                                  000117
1020062960800018000000160023700705888                         0000000000010163910P0000000000000000000000000606310715          0000000000010163910P000000000000000206310400069  000000000000000000000000000000000000000000000000000000000000000000000000000000000000000206300000000000000000000000000   030815             00000000000000                                                                  000083
1020062960800018000000160023700705888                         000000000001016431660000000000000000000000000606310715          00000000000101643166000000000000000999003300773  000000000000000000000000000000000000000000000000000000000000000000000000000000000000000999000000000000000000000000000   030815             00000000000000                                                                  000084
1020062960800018000000160023700705888                         000000000001016440220000000000000000000000000606310715          00000000000101644022000000000000000716010400069  000000000000000000000000000000000000000000000000000000000000000000000000000000000000000716000000000000000000000000000   030815             00000000000000                                                                  000085
1020062960800018000000160023700705888                         000000000001016481250000000000000000000000000606310715          00000000000101648125000000000000000382410400069  000000000000000000000000000000000000000000000000000000000000000000000000000000000000000382400000000000000000000000000   030815             00000000000000                                                                  000086
1020062960800018000000160023700705888                         000000000001016482490000000000000000000000000606310715          00000000000101648249000000000000001195610403203  000000000000000000000000000000000000000000000000000000000000000000000000000000000000001195600000000000000000000000000   030815             00000000000000                                                                  000087
1020062960800018000000160023700705888                         000000000001016484860000000000000000000000000606310715          00000000000101648486000000000000000344300100019  000000000000000000000000000000000000000000000000000000000000000000000000000000000000000344300000000000000000000000000   030815             00000000000000                                                                  000088
1020062960800018000000160023700705888                         000000000001016563220000000000000000000000000606310715          00000000000101656322000000000000000999000100019  000000000000000000000000000000000000000000000000000000000000000000000000000000000000000999000000000000000000000000000   030815             00000000000000                                                                  000089
1020062960800018000000160023700705888                         0000000000010166144P0000000000000000000000000606310715          0000000000010166144P000000000000000739600100019  000000000000000000000000000000000000000000000000000000000000000000000000000000000000000739600000000000000000000000000   030815             00000000000000                                                                  000090
1020062960800018000000160023700705888                         000000000001016616870000000000000000000000000606310715          00000000000101661687000000000000000498000103192  000000000000000000000000000000000000000000000000000000000000000000000000000000000000000498000000000000000000000000000   030815             00000000000000                                                                  000091
1020062960800018000000160023700705888                         000000000001016625270000000000000000000000000606310715          00000000000101662527000000000000000517400100019  000000000000000000000000000000000000000000000000000000000000000000000000000000000000000517400000000000000000000000000   030815             00000000000000                                                                  000092
1020062960800018000000160023700705888                         000000000001016642440000000000000000000000000606310715          00000000000101664244000000000000000792023703519  000000000000000000000000000000000000000000000000000000000000000000000000000000000000000792000000000000000000000000000   030815             00000000000000                                                                  000093
1020062960800018000000160023700705888                         000000000001016643410000000000000000000000000606310715          00000000000101664341000000000000000479310403203  000000000000000000000000000000000000000000000000000000000000000000000000000000000000000479300000000000000000000000000   030815             00000000000000                                                                  000094
1020062960800018000000160023700705888                         000000000001016673400000000000000000000000000606310715          00000000000101667340000000000000002091623700237  000000000000000000000000000000000000000000000000000000000000000000000000000000000000002091600000000000000000000000000   030815             00000000000000                                                                  000095
1020062960800018000000160023700705888                         000000000001016682580000000000000000000000000606310715          00000000000101668258000000000000001121423700237  000000000000000000000000000000000000000000000000000000000000000000000000000000000000001121400000000000000000000000000   030815             00000000000000                                                                  000096
1020062960800018000000160023700705888                         000000000001016712670000000000000000000000000606310715          00000000000101671267000000000000000999000100019  000000000000000000000000000000000000000000000000000000000000000000000000000000000000000999000000000000000000000000000   030815             00000000000000                                                                  000097
1020062960800018000000160023700705888                         000000000001016778770000000000000000000000000606310715          00000000000101677877000000000000000310710403203  000000000000000000000000000000000000000000000000000000000000000000000000000000000000000310700000000000000000000000000   030815             00000000000000                                                                  000098
1020062960800018000000160023700705888                         000000000001016803550000000000000000000000000606310715          00000000000101680355000000000000000645303300773  000000000000000000000000000000000000000000000000000000000000000000000000000000000000000645300000000000000000000000000   030815             00000000000000                                                                  000099
1020062960800018000000160023700705888                         000000000001016870660000000000000000000000000606310715          00000000000101687066000000000000000387700100019  000000000000000000000000000000000000000000000000000000000000000000000000000000000000000387700000000000000000000000000   030815             00000000000000                                                                  000100
1020062960800018000000160023700705888                         000000000001016871630000000000000000000000000606310715          00000000000101687163000000000000000383623702482  000000000000000000000000000000000000000000000000000000000000000000000000000000000000000383600000000000000000000000000   030815             00000000000000                                                                  000101
1020062960800018000000160023700705888                         000000000001016871980000000000000000000000000606310715          00000000000101687198000000000000000383600100019  000000000000000000000000000000000000000000000000000000000000000000000000000000000000000383600000000000000000000000000   030815             00000000000000                                                                  000102
1020062960800018000000160023700705888                         000000000001016872440000000000000000000000000606310715          00000000000101687244000000000000001500000100019  000000000000000000000000000000000000000000000000000000000000000000000000000000000000001500000000000000000000000000000   030815             00000000000000                                                                  000103
1020062960800018000000160023700705888                         000000000001016872600000000000000000000000000606310715          00000000000101687260000000000000000351000103192  000000000000000000000000000000000000000000000000000000000000000000000000000000000000000351000000000000000000000000000   030815             00000000000000                                                                  000104
1020062960800018000000160023700705888                         000000000001016933680000000000000000000000000606310715          00000000000101693368000000000000000999003300773  000000000000000000000000000000000000000000000000000000000000000000000000000000000000000999000000000000000000000000000   030815             00000000000000                                                                  000105
1020062960800018000000160023700705888                         000000000001016943720000000000000000000000000606310715          00000000000101694372000000000000003000003300773  000000000000000000000000000000000000000000000000000000000000000000000000000000000000003000000000000000000000000000000   030815             00000000000000                                                                  000106
1020062960800018000000160023700705888                         000000000001016947470000000000000000000000000606310715          00000000000101694747000000000000002915000400160  000000000000000000000000000000000000000000000000000000000000000000000000000000000000002915000000000000000000000000000   030815             00000000000000                                                                  000107
1020062960800018000000160023700705888                         000000000001016956460000000000000000000000000606310715          00000000000101695646000000000000000750000100019  000000000000000000000000000000000000000000000000000000000000000000000000000000000000000750000000000000000000000000000   030815             00000000000000                                                                  000108
